:100000000C945D000C9485000C9485000C94850084
:100010000C9485000C9485000C9485000C9485004C
:100020000C9485000C9485000C9485000C9485003C
:100030000C9485000C9485000C9485000C9485002C
:100040000C9411020C9485000C9481020C945B02B8
:100050000C9485000C9485000C9485000C9485000C
:100060000C9485000C9485000000000024002700FB
:100070002A0000000000250028002B0004040404CE
:100080000404040402020202020203030303030342
:10009000010204081020408001020408102001021F
:1000A00004081020000000080002010000030407FB
:1000B00000000000000000003E0411241FBECFEF2E
:1000C000D8E0DEBFCDBF11E0A0E0B1E0E6E3F9E0AB
:1000D00002C005900D92AA31B107D9F721E0AAE13B
:1000E000B1E001C01D92A13DB207E1F710E0CDE5FE
:1000F000D0E004C02197FE010E949304CC35D107C3
:10010000C9F70E94B3020C9499040C940000E6EA2B
:10011000F0E02491E2E9F0E09491EEE7F0E0E49180
:10012000EE23C9F0222339F0233001F1A8F4213065
:1001300019F1223029F1F0E0EE0FFF1FEE58FF4FCA
:10014000A591B4912FB7F894EC91811126C09095A8
:100150009E239C932FBF08952730A9F02830C9F023
:10016000243049F7209180002F7D03C0209180002A
:100170002F7720938000DFCF24B52F7724BDDBCFEE
:1001800024B52F7DFBCF2091B0002F772093B000B6
:10019000D2CF2091B0002F7DF9CF9E2BDACF2FB791
:1001A000F8946091CD017091CE018091CF01909132
:1001B000D0012FBF0895AF92BF92CF92DF92EF92FE
:1001C000FF920F931F93CF93DF936C017B018B0101
:1001D000040F151FEB015E01AE18BF08C017D10751
:1001E00059F06991D601ED91FC910190F081E02DDB
:1001F000C6010995892B79F7C501DF91CF911F9130
:100200000F91FF90EF90DF90CF90BF90AF90089547
:10021000FC01538D448D252F30E0842F90E0821B0C
:10022000930B541710F0CF96089501970895FC0191
:10023000918D828D981761F0A28DAE0FBF2FB11DE9
:100240005D968C91928D9F5F9F73928F90E0089541
:100250008FEF9FEF0895FC01918D828D981731F0FB
:10026000828DE80FF11D858D90E008958FEF9FEF4F
:100270000895FC01918D228D892F90E0805C9F4F25
:10028000821B91098F73992708958AE191E00E945A
:10029000390121E0892B09F420E0822F089580E0C4
:1002A00090E0892B29F00E94450181110C940000F7
:1002B0000895FC01A48DA80FB92FB11DA35ABF4FFB
:1002C0002C91848D90E001968F739927848FA68955
:1002D000B7892C93A089B1898C91837080648C93A9
:1002E000938D848D981306C00288F389E02D808158
:1002F0008F7D80830895EF92FF920F931F93CF938A
:10030000DF93EC0181E0888F9B8D8C8D98131AC050
:10031000E889F989808185FF15C09FB7F894EE8937
:10032000FF896083E889F989808183708064808394
:100330009FBF81E090E0DF91CF911F910F91FF90DF
:10034000EF900895F62E0B8D10E00F5F1F4F0F7387
:100350001127E02E8C8D8E110CC00FB607FCFACF42
:10036000E889F989808185FFF5CFCE010E94590186
:10037000F1CFEB8DEC0FFD2FF11DE35AFF4FF08213
:100380009FB7F8940B8FEA89FB8980818062CFCF79
:10039000CF93DF93EC01888D8823B9F0AA89BB89BC
:1003A000E889F9898C9185FD03C0808186FD0DC0A7
:1003B0000FB607FCF7CF8C9185FFF2CF808185FFC8
:1003C000EDCFCE010E945901E9CFDF91CF91089581
:1003D000CF92DF92EF92FF92CF93DF936B017C017C
:1003E000F894C3E2D0E081E00E948700CE0101973B
:1003F000F1F780E00E948700CE010197F1F78AE1D2
:10040000C81AD108E108F1081C141D041E041F04B9
:1004100054F37894DF91CF91FF90EF90DF90CF90DD
:1004200008951F920F920FB60F9211242F933F93AE
:100430008F939F93AF93BF938091CD019091CE0105
:10044000A091CF01B091D0013091CC0123E0230FD6
:100450002D3758F50196A11DB11D2093CC01809335
:10046000CD019093CE01A093CF01B093D0018091A4
:10047000C8019091C901A091CA01B091CB01019628
:10048000A11DB11D8093C8019093C901A093CA0119
:10049000B093CB01BF91AF919F918F913F912F91DD
:1004A0000F900FBE0F901F90189526E8230F02960D
:1004B000A11DB11DD2CF1F920F920FB60F92112422
:1004C0002F933F934F935F936F937F938F939F935C
:1004D000AF93BF93EF93FF938AE191E00E9459019C
:1004E000FF91EF91BF91AF919F918F917F916F910C
:1004F0005F914F913F912F910F900FBE0F901F90E2
:1005000018951F920F920FB60F9211242F938F936D
:100510009F93EF93FF93E0912A01F0912B0180814B
:10052000E0913001F091310182FD1BC090818091FA
:1005300033018F5F8F7320913401821741F0E09176
:100540003301F0E0E65EFE4F958F80933301FF911B
:10055000EF919F918F912F910F900FBE0F901F9051
:1005600018958081F4CFCF93DF93CDB7DEB72C976A
:100570000FB6F894DEBF0FBECDBF789484B582600D
:1005800084BD84B5816084BD85B5826085BD85B537
:10059000816085BD80916E00816080936E001092B5
:1005A0008100809181008260809381008091810030
:1005B00081608093810080918000816080938000C1
:1005C0008091B10084608093B1008091B00081601F
:1005D0008093B00080917A00846080937A0080914B
:1005E0007A00826080937A0080917A0081608093A3
:1005F0007A0080917A00806880937A001092C1001E
:10060000E2E9F0E02491EEE7F0E08491882399F0AC
:1006100090E0880F991FFC01E859FF4FA591B49114
:10062000FC01EE58FF4F859194918FB7F894EC91AF
:10063000E22BEC938FBF80E00E948700E0912A01BB
:10064000F0912B0182E08083E0912601F091270157
:100650001082E0912801F091290180E180831092BD
:100660003201E0912E01F0912F0186E08083E0912C
:100670002C01F0912D01808180618083E0912C011B
:10068000F0912D01808188608083E0912C01F091B0
:100690002D01808180688083E0912C01F0912D01F3
:1006A00080818F7D808380E88093B7018FE3809382
:1006B000B8018093B9011092BA018093BB0123E382
:1006C000222E2FE1322E3BEAC32E34E0D32E4BEE06
:1006D000A42E4AE0B42E5CEB852E51E0952E60E00E
:1006E000E62E60E0F62E8091C00181110DC00E94BF
:1006F000CF006093BC017093BD018093BE019093C5
:10070000BF0161E06093C0014091BB012091BA013B
:100710000091B9013091B8011091B70188E0E0E093
:10072000F1E0DE01119601900D928A95E1F7E42F38
:10073000EF53FF0BCF0163E070E00E946B04360FB4
:1007400039870A87210F2B874C8762ED77E080E09D
:1007500090E00E94E801C1010197F1F718E000E084
:1007600068E371E080E090E00E94E8011150A1E0B0
:10077000B0E0AC0FBD1FA10FB11DE9E0F0E0EC0F40
:10078000FD1FE00FF11D80819C91892309F474C045
:10079000C5010197F1F7111102C00F5F18E0043095
:1007A000F9F668E371E080E090E00E94E80161E81A
:1007B0008AE191E00E947B010E94CF002B013C0165
:1007C0008AE191E00E94390105975CF40E94CF0014
:1007D00064197509860997096233710581059105C8
:1007E00078F38AE191E00E943901059764F007EB04
:1007F00011E08AE191E00E941701F80181938F01D5
:100800008E169F06B1F78091B70194EB492E512CBB
:10081000612C712C811105C088E7482E512C612C68
:10082000712C0E94CF00AB01BC018091BC01909162
:10083000BD01A091BE01B091BF01840D951DA61D03
:10084000B71D481759076A077B0758F30E94CF0066
:100850006093BC017093BD018093BE019093BF0172
:10086000E114F10409F43FCF0E944501882309F403
:100870003ACF0E94000037CFC6018BCFEAE1F1E00A
:100880001382128288EE93E0A0E0B0E08483958327
:10089000A683B7838CE091E09183808385EC90E020
:1008A0009587848784EC90E09787868780EC90E03A
:1008B000918B808B81EC90E0938B828B82EC90E02B
:1008C000958B848B86EC90E0978B868B118E128EA5
:1008D000138E148E089597FB072E16F4009407D0FC
:1008E00077FD09D00E947F0407FC05D03EF4909567
:1008F00081959F4F0895709561957F4F0895AA1B2C
:10090000BB1B51E107C0AA1FBB1FA617B70710F0FA
:10091000A61BB70B881F991F5A95A9F7809590952C
:10092000BC01CD010895EE0FFF1F0590F491E02D5D
:060930000994F894FFCFCA
:100936000102040810204080000000007B01DB005B
:0A0946000801C801390117012B0157
:00000001FF
