:100000000C94CB000C94F3000C94F3000C94F300CC
:100010000C94F3000C94F3000C94F3000C94F30094
:100020000C9439050C94F3000C94F3000C94F30039
:100030000C94F3000C94F3000C94F3000C94F30074
:100040000C9497040C94F3000C9407050C94E104B1
:100050000C94F3000C94F3000C94F3000C94F30054
:100060000C94F3000C94F30017002860095802B0B8
:1000700004580258025802102D000000060026E025
:100080002070100E022A060E022602806E00510415
:10009000050026E02070100E022A060E020E020055
:1000A00041000000130026801180113002900630BC
:1000B000023002006E0000001E002638081C040EEC
:1000C000022A060E020E0200320000001C00262248
:1000D0000B220BEE026608EE02EE02806E000000BC
:1000E000190026F603BC050802BC050802D401006D
:1000F0004B0000001B00261F015D033E023E021F55
:10010000015D03A06E00000004002604010C03043E
:10011000011C0704010C03006E0000000B00258089
:100120000DC006B0011005B001B001008200000052
:1001300007002600238011300290063002300200B2
:100140006E004104000000080002010000030407E3
:100150000000000000000000000000002500280052
:100160002B0000000000240027002A0004040404DF
:100170000404040402020202020203030303030351
:10018000010204081020408001020408102001022E
:1001900004081020290611241FBECFEFD8E0DEBFCF
:1001A000CDBF22E0A6E2B1E001C01D92A73EB2079A
:1001B000E1F711E0A0E0B1E0E2E8F0E202C0059072
:1001C0000D92A632B107D9F710E0CBECD0E004C015
:1001D0002197FE010E943910CA3CD107C9F70E943D
:1001E00065060C943F100C9400002091D8023091C9
:1001F000D9022817390728F48091D60281608093AC
:10020000D60208952091DA018091D70240E02817A4
:1002100098F5422F41703091DD01311121C0E22F5C
:10022000F0E0EF52FE4F838992E3899FF0011124A1
:10023000ACEEBFEF442311F0A4E1B0E06091DE0129
:100240007091DF01CB01969587958E0F9F1F8A0FC6
:100250009B1F0E94111077277093DC016093DB01D4
:100260008091DB019091DC01009771F03F5F3817BE
:10027000190620F43093DD01842F08951092DD01DA
:100280002F5F2093DA01F8CF42E0F6CF90E0FC0137
:10029000EC5BFE4F2491FC01E058FE4F3491FC01D1
:1002A000E459FE4FE491EE23C9F0222339F02330C4
:1002B00001F1A8F4213019F1223029F1F0E0EE0F1C
:1002C000FF1FE85AFE4FA591B4918FB7F894EC91B7
:1002D000611126C030953E233C938FBF089527308F
:1002E000A9F02830C9F0243049F7809180008F7D33
:1002F00003C0809180008F7780938000DFCF84B52A
:100300008F7784BDDBCF84B58F7DFBCF8091B0002C
:100310008F778093B000D2CF8091B0008F7DF9CFDE
:100320003E2BDACF3FB7F89480912B0190912C01AE
:10033000A0912D01B0912E0126B5A89B05C02F3F9D
:1003400019F00196A11DB11D3FBFBA2FA92F982FFB
:100350008827BC01CD01620F711D811D911D42E0F6
:10036000660F771F881F991F4A95D1F70895AF929E
:10037000BF92CF92DF92EF92FF920F931F93CF9392
:10038000DF936C017B018B01040F151FEB015E01F4
:10039000AE18BF08C017D10759F06991D601ED9189
:1003A000FC910190F081E02DC6010995892B79F728
:1003B000C501DF91CF911F910F91FF90EF90DF90DA
:1003C000CF90BF90AF900895FC01538D448D252FA1
:1003D00030E0842F90E0821B930B541710F0CF96DF
:1003E000089501970895FC01918D828D981761F011
:1003F000A28DAE0FBF2FB11D5D968C91928D9F5F28
:100400009F73928F90E008958FEF9FEF0895FC0106
:10041000918D828D981731F0828DE80FF11D858DB9
:1004200090E008958FEF9FEF0895FC01918D228D4C
:10043000892F90E0805C9F4F821B91098F739927D1
:1004400008958FE291E00E94150221E0892B09F4C2
:1004500020E0822F089580E090E0892B29F00E940F
:10046000210281110C9400000895FC01A48DA80FB5
:10047000B92FB11DA35ABF4F2C91848D90E00196E6
:100480008F739927848FA689B7892C93A089B18906
:100490008C91837080648C93938D848D981306C0A7
:1004A0000288F389E02D80818F7D80830895EF920B
:1004B000FF920F931F93CF93DF93EC0181E0888F1E
:1004C0009B8D8C8D98131AC0E889F989808185FFEE
:1004D00015C09FB7F894EE89FF896083E889F98990
:1004E00080818370806480839FBF81E090E0DF9192
:1004F000CF911F910F91FF90EF900895F62E0B8DE5
:1005000010E00F5F1F4F0F731127E02E8C8D8E119F
:100510000CC00FB607FCFACFE889F989808185FF06
:10052000F5CFCE010E943502F1CFEB8DEC0FFD2F00
:10053000F11DE35AFF4FF0829FB7F8940B8FEA89C1
:10054000FB8980818062CFCFCF93DF93EC01888DD0
:100550008823B9F0AA89BB89E889F9898C9185FD3E
:1005600003C0808186FD0DC00FB607FCF7CF8C91CC
:1005700085FFF2CF808185FFEDCFCE010E9435024D
:10058000E9CFDF91CF9108958F929F92AF92BF9262
:10059000CF92DF92EF92FF924B015C010E94920199
:1005A0006B017C0124E0C21AD108E108F1080E9425
:1005B00092016C197D098E099F09681579058A05D4
:1005C0009B05A8F3FF90EF90DF90CF90BF90AF9086
:1005D0009F908F90089542E3489F9001499F300D6E
:1005E00011242C5E3F4F7695679576956795CB01E4
:1005F000880F991F860F971F8217930750F485E085
:10060000869FA001879F500D112481E04217530758
:1006100008F480E0089542E3489F9001499F300D1F
:100620001124245131097695679576956795CB010C
:10063000880F991F860F971F8217930750F485E044
:10064000869FA001879F500D112481E04217530718
:1006500008F480E008954F925F926F927F929F928C
:10066000AF92BF92CF92DF92EF92FF920F931F93C0
:10067000CF93DF93182F5A01922EC62FD0E0CC5182
:10068000DE4F412C512C32014394C12CD12C7601E8
:100690001123F1F09920B1F08881B50190E00E941A
:1006A0000B03002369F1CC0CDD1CEE1CFF1C88231E
:1006B00011F06894C0F8440C551C661C771C11504E
:1006C0002296E6CF8981B50190E00E94EB02E9CF46
:1006D000C092B402D092B502E092B602F092B70294
:1006E000DF91CF911F910F91FF90EF90DF90CF900E
:1006F000BF90AF909F907F906F905F904F900895C4
:100700008823C9F2C428D528E628F728D4CFCF9368
:10071000DF93EC01FC013396659174918091E501C2
:1007200090E00E940B03882359F0FE0135966591F5
:1007300074918091E60190E0DF91CF910C94EB02EF
:1007400080E0DF91CF9108958AE190E09093CE010F
:100750008093CD0185E090E09093D0018093CF010C
:100760008091CC0190E0FC01E058FE4F2491845927
:100770009E4FFC018491882399F090E0880F991F87
:10078000FC01EE59FE4FA591B491FC01E85AFE4FD1
:10079000859194918FB7F894EC91E22BEC938FBFF5
:1007A00008958091E5028F3F11F42D98089560E03F
:1007B0000C944601882349F08091E5028F3F11F4A3
:1007C0002D9A089561E00C9446010C94D1038F9208
:1007D0009F92AF92BF92CF92DF92EF92FF92CF9310
:1007E0006C010E9492014B015C01F12CE12C88E02C
:1007F000C80ED11CE11CF11CC80CD91CEA1CFB1C46
:10080000C0E0F89461E08091CC010E944601E09143
:10081000CF01F091D001E230F10538F0EE0FFF1F6B
:10082000EE0FFF1F35973197F1F760E08091CC0113
:100830000E9446017894C11103C081E00E94DA034E
:100840008091CD019091CE01880E991EA11CB11C02
:100850000E9492016C157D058E059F0558F0CF9181
:10086000FF90EF90DF90CF90BF90AF909F908F90D0
:100870000C94D103C1E0681579058A059B0540F306
:10088000C0CF0E94A40380E093E20E94E70360ECE3
:1008900078E080E090E00E94C40280E392E00C9453
:1008A000E7030E94A40380EE90E20E94E70368E35E
:1008B00078E080E090E00E94C4028EE092E00C9428
:1008C000E703FF920F931F93CF93DF93CDB7DEB76C
:1008D00064970FB6F894DEBF0FBECDBF162FF42E6F
:1008E00044E150E0BC01CE0101960E94DE0F088970
:1008F000802F80714885598504FD02C04A855B853B
:10090000001F0027001F21E0811101C020E06F2D92
:10091000812F0E942B0364960FB6F894DEBF0FBEA2
:10092000CDBFDF91CF911F910F91FF9008951F923E
:100930000F920FB60F9211242F933F938F939F9393
:10094000AF93BF938091270190912801A091290135
:10095000B0912A013091260123E0230F2D3758F55D
:100960000196A11DB11D209326018093270190932C
:100970002801A0932901B0932A0180912B01909125
:100980002C01A0912D01B0912E010196A11DB11D48
:1009900080932B0190932C01A0932D01B0932E01F5
:1009A000BF91AF919F918F913F912F910F900FBE6B
:1009B0000F901F90189526E8230F0296A11DB11DD8
:1009C000D2CF1F920F920FB60F9211242F933F9305
:1009D0004F935F936F937F938F939F93AF93BF9347
:1009E000EF93FF938FE291E00E943502FF91EF9128
:1009F000BF91AF919F918F917F916F915F914F9137
:100A00003F912F910F900FBE0F901F9018951F923E
:100A10000F920FB60F9211242F938F939F93EF9302
:100A2000FF93E0913F01F09140018081E091450109
:100A3000F091460182FD1BC09081809148018F5F3B
:100A40008F7320914901821741F0E0914801F0E055
:100A5000E15DFE4F958F80934801FF91EF919F914B
:100A60008F912F910F900FBE0F901F90189580813E
:100A7000F4CF1F920F920FB60F9211242F933F9332
:100A80004F935F936F937F938F939F93AF93BF9396
:100A9000CF93EF93FF93E091D301F091D401C08104
:100AA0008091D501C8238091D6019091D7012091E2
:100AB000D6013091D7012F3F3F4F29F001969093F7
:100AC000D7018093D6012091D101211115C0C11108
:100AD0004BC0813A910558F01092E0019093E301E8
:100AE0008093E20181E08093E1018093D101109233
:100AF000D7011092D60138C0213099F4CC23A1F14E
:100B0000E091E1012E0F2093E101F0E0EF52FE4F62
:100B10008F3F910519F010F08FEF90E0838B82E00A
:100B2000E4CF223009F047C0E091E101813A91051C
:100B300010F4E73CA0F1E83C18F081E08093E0017C
:100B40008091E2019091E3019093D9028093D802C1
:100B5000E093D70283E08093D101E091D801F09136
:100B6000D901309709F009958091E602882329F090
:100B700081E0C11180E00E94DA03FF91EF91CF91F3
:100B8000BF91AF919F918F917F916F915F914F91A5
:100B90003F912F910F900FBE0F901F901895C1118C
:100BA000E3CF91E09E0F9093E101F0E0EF52FE4F12
:100BB000838B81E09ACF2330B9F6C111D5CF97CF7F
:100BC000DF92EF92FF920F931F93CF93DF93EC018D
:100BD000D62E8A017901F0E090E080E030E0E0E09C
:100BE000DE01AE0FB11D2C91FF5F222339F0320FD1
:100BF0002E9F800D911D11241C92F0E03323B9F03B
:100C0000DE1611F0F23098F0232F2695820F911DF9
:100C1000632F70E00E941110DE01A60FB11D3C93FE
:100C2000D8013C9131110FC06C9390E080E0EF5FF0
:100C3000DE16B0F681E0DF91CF911F910F91FF900A
:100C4000EF90DF900895D7013C91332369F380E062
:100C5000F2CFEFE2F1E01382128288EE93E0A0E09F
:100C6000B0E084839583A683B78388E191E0918384
:100C7000808385EC90E09587848784EC90E097876B
:100C8000868780EC90E0918B808B81EC90E0938B59
:100C9000828B82EC90E0958B848B86EC90E0978B36
:100CA000868B118E128E138E148E8FEF8093E50239
:100CB000E1EDF1E0118281E0848389E290E09383A9
:100CC000828350981092CC010895CF93DF93CDB7D3
:100CD000DEB7E7970FB6F894DEBF0FBECDBF7894AE
:100CE00084B5826084BD84B5816084BD85B5826031
:100CF00085BD85B5816085BD80916E0081608093E2
:100D00006E0010928100809181008260809381004A
:100D1000809181008160809381008091800081605A
:100D2000809380008091B10084608093B1008091B5
:100D3000B00081608093B00080917A0084608093DD
:100D40007A0080917A00826080937A0080917A00A4
:100D5000816080937A0080917A00806880937A0025
:100D60001092C100E0913F01F091400182E0808348
:100D7000E0913B01F0913C011082E0913D01F09146
:100D80003E0190E1908310924701E0914301F09180
:100D9000440196E09083E0914101F09142019081FD
:100DA00090619083E0914101F091420190819860BF
:100DB0009083E0914101F09142019081906890838D
:100DC000E0914101F091420190819F7D908393E0F9
:100DD0009093D20198E09093D50129E230E03093CE
:100DE000D4012093D301539891E09093E6029FEFB2
:100DF0009093E502259A8093B0008093B10084E639
:100E00008093B3008093B4001092B2008091D1011E
:100E1000833011F41092D10184E0809370009E0120
:100E20002F5F3F4F59018091D101833009F049C2B2
:100E30008091E001882309F463C080E48093D602A6
:100E40001092AD021092AC021092B1021092B00258
:100E50001092AF021092AE021092B4021092B5023C
:100E60001092B6021092B7021092D5021092D402DC
:100E70008091D60286FD1FC21091D702812F8F7BF1
:100E8000843009F0BFC08091E50160E073E290E03A
:100E90000E940B03882309F442C18091E60190E08F
:100EA000143009F048C060EC78E00E94EB0288231F
:100EB00009F435C18091E70160E372E090E00E949F
:100EC0000B03882309F42BC181E08093D602809123
:100ED000DC029091DD029093AF028093AE0280918C
:100EE000DE029091DF029093B1028093B002809174
:100EF000DA029091DB029093AD028093AC027AC14A
:100F00001092D6028091AC029091AD029093DB02D8
:100F10008093DA028091B0029091B1029093DF0247
:100F20008093DE028091AE029091AF029093DD0239
:100F30008093DC0285CF60E871E10E94EB02882398
:100F400009F4EDC043E060E280E391E00E946104B7
:100F50002091B4029091B5026091B6028091B702DF
:100F6000462F50E05093B1024093B002422F592FC8
:100F70004E3E37E8530719F523E030E03093AD02D9
:100F80002093AC0290E09093AF028093AE0280E297
:100F900090E09093D5028093D4028AE795E00E9476
:100FA000F5008091D60280FF25C128E030E0309323
:100FB000AD022093AC0280628093D6021BC1909553
:100FC000291310C030E03093AF022093AE02982F67
:100FD000909569130CC087E090E09093AD028093E8
:100FE000AC02D5CF5093AF024093AE02F0CF29E0D0
:100FF00030E03093AD022093AC026093B002809356
:10100000B102C5CF143609F08AC08CE191E00E948C
:101010008703882309F483C043E060E18CE191E019
:101020000E946104D090B4020D2D1091B502FAE037
:10103000EF2EF12C023040E21407F9F0EDE0EE2E35
:10104000F12C0A3A8AE51807C1F07CE0E72EF12C72
:10105000043592E3190789F06EE0E62EF12C033097
:10106000A1E01A0751F0AFE0EA2EF12C0332BBECFD
:101070001B0719F05BE0E52EF12CD1268D2D829512
:101080008F70D82643E260E28CE191E00E94610417
:101090008091B4029091B502A091B602B091B702CE
:1010A0009C0144E0369527954A95E1F73093AF02CD
:1010B0002093AE022A2F30E03093B1022093B00289
:1010C000282F2A2729273D2D3F70482F4F7034178E
:1010D00019F034E03093D602EBE0EE16F10449F457
:1010E0003091D60230613093D6021093B302009350
:1010F000B2022B1729F08091D60284608093D60229
:1011000080E390E09093D5028093D402F092AD02F8
:10111000E092AC028AE397E00E94F5006BC08091F8
:10112000D702803209F0DDC08091E5018A3008F0F5
:10113000D8C041E06FE088E091E00E9461048091B6
:10114000B4029091B502A091B602B091B7029C0191
:101150002F7133273093AF022093AE0215E0B6957E
:10116000A795979587951A95D1F7392F3370AC01CC
:1011700055275093B1024093B0024091D80250914C
:10118000D9024536544008F0A9C02091D602226009
:101190002093D6022091E4022F5F2093E40220FFE7
:1011A00019C0213019F021E02093D6023091DE02DF
:1011B0004091DF02282F2095231729F02091D60295
:1011C00024602093D6023093B0024093B102392FAD
:1011D0003095337086E190E0311102C084E090E0F8
:1011E0009093AD028093AC028FE090E09093D50293
:1011F0008093D4020091B4021091B5022091B602FE
:101200003091B702011511052105310509F453C0CC
:1012100080E290E040E050E0BA01440F551F661FA5
:10122000771F68017901B1E0CB22DD24EE24FF2491
:101230004C295D296E297F293695279517950795A5
:10124000019759F7472E5524662477246B01EE2425
:10125000FF24BB27A72F962F852F142F882EE894C5
:1012600087F802E487FF01E4E12FEF53FF0BCF0182
:101270006DEF7FEF0E942510460E61E88FE291E04E
:101280000E945702602F8FE291E00E945702642D66
:101290008FE291E00E9457026C2D8FE291E00E9454
:1012A0005702682D8FE291E00E945702612F8FE272
:1012B00091E00E9457028091D101833011F4109285
:1012C000D10180E090E0892B09F4ADCD0E9421028C
:1012D000882309F4A8CD0E940000A5CD1092E40255
:1012E00079CF88E690E00E9487039091D702882307
:1012F00009F445C09A3129F09A3219F0903209F078
:101300003EC0892F90E0BC016150710977FDBC019E
:101310007595679543E088E690E00E9461048091AE
:10132000B4029091B502A091B602B091B7029C01AF
:101330002F7733273093B1022093B002F7E0B695B0
:10134000A79597958795FA95D1F79093AF028093DB
:10135000AE022091D70230E0C901019797FDC90183
:10136000959587959093D5028093D40287E190E07C
:101370009093AD028093AC0288E292E0CDCE81E002
:101380008093DA0129E733E03093DF012093DE0117
:101390001092DD019E509B3108F0C1C08091E501A3
:1013A0008D3208F0BCC00E940201813009F0B7C044
:1013B00000E0C12CD12C760110E09091DA018091EF
:1013C000D7029817C0F50E940201982E0E940201D0
:1013D00091100AC0813091F4CC0CDD1CEE1CFF1C76
:1013E0006894C0F81F5FE9CF31E0931207C0811104
:1013F00005C0CC0CDD1CEE1CFF1CF4CF173009F02F
:101400008EC08091DA01E82FF0E0EF52FE4F938911
:10141000963340F39091DD019E5F9093DD01209122
:10142000DB013091DC019217130618F08F5F809377
:10143000DA0101E0D7CFC092B402D092B502E092B7
:10144000B602F092B702C60126E0969587952A95D6
:10145000E1F7212F30E00023D9F1215031093093F9
:10146000D5022093D40296012F7333273093B30211
:101470002093B2028F7399279093B1028093B002A8
:10148000B701A6011CE076956795579547951A9583
:10149000D1F74F7155275093AF024093AE02E2FC53
:1014A00006C0805C9F4F9093B1028093B00280E9A8
:1014B0008093D602E1FE03C088E98093D6028DE1D5
:1014C00090E09093AD028093AC028AED98E024CE38
:1014D0003093D5022093D4022C2D2F7330E030931B
:1014E000B1022093B0028F7199279093AF0280933D
:1014F000AE02C60188279071892B31F4205C3F4FE2
:101500003093B1022093B00280E88093D602D3FEDC
:1015100003C088E88093D60280E190E0D2CF80912A
:10152000D7028A518F3208F0A5C08091E50168E6A4
:101530007AE090E00E940B03882309F49BC080911D
:10154000E60168E773E090E00E94EB02882309F46B
:1015500091C083E08093DA018CEB91E09093DF01FE
:101560008093DE011092DD010E940201813009F0BA
:1015700081C00E94020181117DC0C12CD12C760155
:1015800010E09091DA018091D702981730F50E940F
:101590000201082F0E940201133049F408136AC0A7
:1015A0000E940201982E0E940201981263C001302D
:1015B00051F481115FC0CC0CDD1CEE1CFF1C689443
:1015C000C0F81F5FDECF011155C0813009F052C055
:1015D000CC0CDD1CEE1CFF1CF4CF812F90E090930F
:1015E000D5028093D402C092B402D092B502E092A8
:1015F000B602F092B7022C2D30E08D2D90E0133220
:1016000000F540E84093D6023093B1022093B00237
:101610009093AF028093AE02E0FE03C088E880930F
:10162000D602153128F08091D60280618093D602CF
:1016300081E190E09093AD028093AC0283E79AE061
:101640006BCD40E94093D6023093B1022093B002B3
:101650009093AF028093AE02C7019F739093B30241
:101660008093B202F7FE03C088E98093D60282E13C
:1016700090E0E0CF1091D7021C3319F0143009F03C
:1016800099C08091E50160EE70E290E00E940B034A
:10169000882309F48FC01430A1F50091DA0210916B
:1016A000DB020630110509F0DBC08091E60168E33A
:1016B00078E090E00E94EB02882309F4D1C0809189
:1016C000E7016EE072E090E00E940B03882309F4CA
:1016D000C7C081E88093D6028091DC029091DD0240
:1016E0009093AF028093AE028091DE029091DF0270
:1016F0009093B1028093B0021093AD020093AC02BC
:1017000079CD8091E60160E770E190E00E94EB0204
:10171000882309F44FC043E06CE18CE790E00E941D
:10172000610480E88093D6028091B4029091B50262
:10173000A091B602B091B7028C019D01E4E036950C
:10174000279517950795EA95D1F7A8011093B1024F
:101750000093B0028C019D01F4E136952795179511
:101760000795FA95D1F71093AF020093AE0224E0EB
:1017700030E060E0742F7F70670F74E056954795F6
:101780007A95E1F721503109A9F786278F709927BB
:10179000AA27BB27892B8A2B8B2B19F084E88093EF
:1017A000D60286E090E09093AD028093AC028CE18B
:1017B00090E01CCD123271F1143209F051C080E971
:1017C00090E00E948703882309F44AC043E060E167
:1017D00080E990E00E9461048091B4029091B5028A
:1017E000A091B602B091B702492F5A2F6B2F7727DD
:1017F0005093B1024093B00299279093AF02809327
:10180000AE0280E190E09093D5028093D40285E00F
:1018100090E071CB0091DA021091DB0205301105E6
:1018200009F0E8CC8091D8029091D9028C3E9C4579
:1018300008F0E0CC8091E5016EE072E090E00E945B
:101840000B03882309F4D6CC809105026EE072E088
:1018500090E00E940B03882309F4CCCC81E03ACFBE
:101860008091D702982F9F7D943419F0863009F02B
:1018700083C084EA90E00E948703882309F47CC037
:101880008091DA029091DB0284319105C1F42091BC
:10189000D7022630A1F421E22093D6022091DC0267
:1018A0003091DD023093AF022093AE022091DE0230
:1018B0003091DF023093B1022093B0021CCB43E0A1
:1018C00060E284EA90E00E9461049091B402809109
:1018D000B5021091B6024091B7029C013093AE025E
:1018E0002093AF022091D702042F0095243639F5BA
:1018F00043E460E184EA90E00E9461048091B402D4
:101900009091B502101731F09095981719F094E066
:101910009093D602982F812F9093B1028093B002BA
:1019200080E390E09093D5028093D40285E190E02B
:101930009093AD028093AC028EEB9AE0EDCB101346
:1019400016C0212F30E03093B1022093B0028913EA
:1019500005C090E09093AF028093AE0280E290E0E9
:101960009093D5028093D40283E190E0E1CF10936D
:10197000B0024093B102EBCF8091D702843269F577
:1019800088EB90E00E948703882339F143E060E10F
:1019900088EB90E00E9461041091B4028091B5023E
:1019A0008095181719F084E08093D6028DE692E0B6
:1019B0000E94F500812F90E09093B1028093B002D5
:1019C0001092AF021092AE0280E190E09093D502A7
:1019D0008093D4028EE190E08ECA8091D702843445
:1019E000C1F48CEC90E00E948703882391F043E0DF
:1019F00060E28CEC90E00E94610480E88093D60263
:101A000080E290E09093D5028093D4028CE190E044
:101A100072CA8091E501A2E38A9FC0011124835616
:101A200091098C39910508F068C08091E60162E067
:101A300074E090E00E94EB02882309F45EC080917C
:101A4000D702843209F059C000910F01802F8071B4
:101A5000409107015091080104FD04C04091090123
:101A600050910A01001F0027001F21E0811101C0D1
:101A700020E063E080E10E942B0380E88093D6029F
:101A80009091B4028091B502292F382F482F4295AA
:101A90004F708F7054E0369527955A95E1F72F7067
:101AA000392F3F709FE0942798279227391719F014
:101AB00094E89093D6026091D8027091D902683F61
:101AC000714128F49091D60292609093D60240938F
:101AD000AE021092AF02E0E18E9FC0011124822B72
:101AE0009093B1028093B00280E190E09093D50290
:101AF0008093D4028AE190E0FEC980EE90E00E94DB
:101B00008703882371F18091D702843251F543E035
:101B100060E180EE90E00E9461048091070268E03D
:101B200072E090E00E940B038823D9F08091B40208
:101B30009091B50298279F3FA1F490E09093B10255
:101B40008093B00280E190E09093D5028093D4021C
:101B500089E190E09093AD028093AC0288ED94E02F
:101B6000DBCA8091D702803709F04FC041E068E0BE
:101B700084EF90E00E9461048091B4029091B502DC
:101B8000A091B602B091B702892B8A2B8B2BE9F575
:101B900041E16FE184EF90E00E946104C090B402E3
:101BA000D090B502E090B602F090B7024FE461E148
:101BB00084EF90E00E9461049091B5028091B6029A
:101BC0008927982789279093B1028093B002C09209
:101BD000B402D092B502E092B602F092B702D0926F
:101BE000AF02C092AE02F092B302E092B2028BE179
:101BF00090E09093AD028093AC0288E390E09093E4
:101C0000D5028093D40280E8D7C98091D7028F7B18
:101C1000843009F040C08091E50160E073E290E01B
:101C20000E940B038823B9F18091E60160E871E11D
:101C300090E00E94EB02882371F143E060E280E3D0
:101C400091E00E9461048091B4029091B5023091BC
:101C5000B6022091B702909589131DC0922F9095DE
:101C60009317C9F04FE150E05093AD024093AC029E
:101C700090E09093AF028093AE02C9019093B002BE
:101C80008093B10280E290E09093D5028093D402D9
:101C90008AE795E041CA8091D702823108F439C1C0
:101CA00092E3D5011D929A95E9F743E060E08250F6
:101CB000990B242F30E02817390794F42F523E4F08
:101CC000F9012389223308F024C1F501E20FF11D47
:101CD00030813F5F3083621708F4622F4E5FE9CF97
:101CE0001EAA1DAA9E012B5C3F4FAE014A5C5F4FAE
:101CF000C5010E94E005882309F40BC182E3D501E8
:101D00001D928A95E9F72091D7022250330B44E0C7
:101D100060E0842F90E08217930794F48F529E4FD7
:101D2000FC018389823308F0F4C0F501E80FF11D4E
:101D300090819F5F9083681708F4682F4E5FE9CF0A
:101D40001CAA1BAA9E012D5C3F4FAE014C5C5F4F4D
:101D5000C5010E94E005882309F4DBC08091D70209
:101D600086951FEF180FEBA8EE2011F01EEF180F4D
:101D7000812F90E09093D5028093D4022C01F1E062
:101D80004F1A510857FE04C02C012EE1420E511C7F
:101D900085E0559447948A95E1F74FAACDA8C110E4
:101DA00003C0EE2009F4B5C06CA882E3689E300140
:101DB00011248EA8889E40011124C89E6001112420
:101DC000E89E7001112403E0202E312C812F113266
:101DD00008F080E29BA9992309F47BC0A2E0B0E05F
:101DE000B093AD02A093AC0200E020E0A701622D09
:101DF0000E942B038091B4029091B502A091B6028B
:101E0000B091B70224E0329EF0011124EC53FD4F53
:101E100080839183A283B38330E4230E10523394E2
:101E20004FA9431598F62091D8023091D902203D50
:101E30003740E8F4F201EE0FFF1FEE0FFF1FEC53E7
:101E4000FD4F00811181228133814091E002509148
:101E5000E1026091E2027091E30204171507260780
:101E6000370729F42091D60221602093D60280936F
:101E7000E0029093E102A093E202B093E30220918A
:101E8000E50192E3299F900111243093B902209338
:101E9000B8028091E601899FC00111249093BB0292
:101EA0008093BA029092C1028092C0027092C302E3
:101EB0006092C202C114D10419F1E114F10499F441
:101EC000D092BD02C092BC027092BF026092BE026C
:101ED00091C9E1E0F0E0F093AD02E093AC0200E0E4
:101EE00021E0A60184CFF092BF02E092BE02909260
:101EF000BD028092BC02D092C102C092C0027AC9D7
:101F00009092BD028092BC02F092BF02E092BE02AB
:101F100071C9E091D702E63008F46CC911E025ECF4
:101F20003DE94CE151E8F0E00AE0612F70E0CB01BF
:101F300002968E179F077CF58F529E4FDC015396B9
:101F40008C916F527E4FDB0153966C91809F700194
:101F5000112498E0699FD0011124EA16FB0678F05D
:101F6000609FB0011124A8E08A9FC0011124A2E063
:101F7000FA2E6817790720F0FF24F39401C0F12CA2
:101F800063E971E080E091E00E94E70F9B01AC0102
:101F90002F251F5FCACF2093B4023093B502409320
:101FA000B6025093B70280E290E09093D5028093FE
:101FB000D4021092AD021092AC021CC9FB01DC01EC
:101FC00002C005900D9241505040D8F70895DB01B2
:101FD0008F939F930E94F70FBF91AF91A29F800DA7
:101FE000911DA39F900DB29F900D112408950E9402
:101FF0000210A59F900DB49F900DA49F800D911D80
:1020000011240895A29FB001B39FC001A39F700D3A
:10201000811D1124911DB29F700D811D1124911DF0
:102020000895AA1BBB1B51E107C0AA1FBB1FA6171F
:10203000B70710F0A61BB70B881F991F5A95A9F771
:1020400080959095BC01CD01089597FB072E16F45D
:10205000009407D077FD09D00E94111007FC05D02D
:102060003EF4909581959F4F0895709561957F4FAF
:102070000895EE0FFF1F0590F491E02D0994F89458
:02208000FFCF90
:102082001A00269E0002049E0029029E00070100FB
:102092006E000000000000005702B701E401A40234
:0620A2001502F301070224
:00000001FF
